{
  "_format": "hh-sol-artifact-1",
  "contractName": "FoodSupplyChain",
  "sourceName": "contracts/mycontract.sol",
  "abi": [
    {
      "anonymous": false,
      "inputs": [
        {
          "indexed": false,
          "internalType": "uint256",
          "name": "productId",
          "type": "uint256"
        },
        {
          "indexed": false,
          "internalType": "string",
          "name": "name",
          "type": "string"
        },
        {
          "indexed": false,
          "internalType": "string",
          "name": "origin",
          "type": "string"
        },
        {
          "indexed": false,
          "internalType": "string",
          "name": "category",
          "type": "string"
        },
        {
          "indexed": false,
          "internalType": "address",
          "name": "owner",
          "type": "address"
        }
      ],
      "name": "ProductAdded",
      "type": "event"
    },
    {
      "anonymous": false,
      "inputs": [
        {
          "indexed": false,
          "internalType": "uint256",
          "name": "productId",
          "type": "uint256"
        },
        {
          "indexed": false,
          "internalType": "string",
          "name": "status",
          "type": "string"
        },
        {
          "indexed": false,
          "internalType": "address",
          "name": "owner",
          "type": "address"
        }
      ],
      "name": "ProductUpdated",
      "type": "event"
    },
    {
      "inputs": [
        {
          "internalType": "string",
          "name": "_name",
          "type": "string"
        },
        {
          "internalType": "string",
          "name": "_origin",
          "type": "string"
        },
        {
          "internalType": "string",
          "name": "_category",
          "type": "string"
        }
      ],
      "name": "addProduct",
      "outputs": [],
      "stateMutability": "nonpayable",
      "type": "function"
    },
    {
      "inputs": [
        {
          "internalType": "uint256",
          "name": "_productId",
          "type": "uint256"
        }
      ],
      "name": "getProduct",
      "outputs": [
        {
          "internalType": "string",
          "name": "",
          "type": "string"
        },
        {
          "internalType": "string",
          "name": "",
          "type": "string"
        },
        {
          "internalType": "string",
          "name": "",
          "type": "string"
        },
        {
          "internalType": "string",
          "name": "",
          "type": "string"
        },
        {
          "internalType": "address",
          "name": "",
          "type": "address"
        }
      ],
      "stateMutability": "view",
      "type": "function"
    },
    {
      "inputs": [],
      "name": "productCount",
      "outputs": [
        {
          "internalType": "uint256",
          "name": "",
          "type": "uint256"
        }
      ],
      "stateMutability": "view",
      "type": "function"
    },
    {
      "inputs": [
        {
          "internalType": "uint256",
          "name": "",
          "type": "uint256"
        }
      ],
      "name": "products",
      "outputs": [
        {
          "internalType": "string",
          "name": "name",
          "type": "string"
        },
        {
          "internalType": "string",
          "name": "origin",
          "type": "string"
        },
        {
          "internalType": "string",
          "name": "category",
          "type": "string"
        },
        {
          "internalType": "string",
          "name": "status",
          "type": "string"
        },
        {
          "internalType": "address",
          "name": "owner",
          "type": "address"
        }
      ],
      "stateMutability": "view",
      "type": "function"
    },
    {
      "inputs": [
        {
          "internalType": "uint256",
          "name": "_productId",
          "type": "uint256"
        },
        {
          "internalType": "string",
          "name": "_status",
          "type": "string"
        }
      ],
      "name": "updateProduct",
      "outputs": [],
      "stateMutability": "nonpayable",
      "type": "function"
    }
  ],
  "bytecode": "0x608060405234801561001057600080fd5b506111ca806100206000396000f3fe608060405234801561001057600080fd5b50600436106100575760003560e01c80630e34b00e1461005c578063522ae8b6146100785780637acc0b2014610094578063b9db15b4146100c8578063e0f6ef87146100fc575b600080fd5b61007660048036038101906100719190610a6e565b61011a565b005b610092600480360381019061008d9190610b4b565b6102a0565b005b6100ae60048036038101906100a99190610ba7565b6103a5565b6040516100bf959493929190610c94565b60405180910390f35b6100e260048036038101906100dd9190610ba7565b61061b565b6040516100f3959493929190610c94565b60405180910390f35b61010461090e565b6040516101119190610d12565b60405180910390f35b6001600081548092919061012d90610d5c565b91905055506040518060a001604052808481526020018381526020018281526020016040518060400160405280600781526020017f437265617465640000000000000000000000000000000000000000000000000081525081526020013373ffffffffffffffffffffffffffffffffffffffff16815250600080600154815260200190815260200160002060008201518160000190816101cd9190610fb0565b5060208201518160010190816101e39190610fb0565b5060408201518160020190816101f99190610fb0565b50606082015181600301908161020f9190610fb0565b5060808201518160040160006101000a81548173ffffffffffffffffffffffffffffffffffffffff021916908373ffffffffffffffffffffffffffffffffffffffff1602179055509050507fc996033f0d0634082b7f1540c1a2819e9204845a9576f15f5c3895c488d8152160015484848433604051610293959493929190611082565b60405180910390a1505050565b3373ffffffffffffffffffffffffffffffffffffffff1660008084815260200190815260200160002060040160009054906101000a900473ffffffffffffffffffffffffffffffffffffffff1673ffffffffffffffffffffffffffffffffffffffff1614610343576040517f08c379a000000000000000000000000000000000000000000000000000000000815260040161033a90611136565b60405180910390fd5b8060008084815260200190815260200160002060030190816103659190610fb0565b507f6599e0074698ba3478733fbb2dac5ef719075c18d140e6c6ad768d8f970b22c582823360405161039993929190611156565b60405180910390a15050565b60006020528060005260406000206000915090508060000180546103c890610dd3565b80601f01602080910402602001604051908101604052809291908181526020018280546103f490610dd3565b80156104415780601f1061041657610100808354040283529160200191610441565b820191906000526020600020905b81548152906001019060200180831161042457829003601f168201915b50505050509080600101805461045690610dd3565b80601f016020809104026020016040519081016040528092919081815260200182805461048290610dd3565b80156104cf5780601f106104a4576101008083540402835291602001916104cf565b820191906000526020600020905b8154815290600101906020018083116104b257829003601f168201915b5050505050908060020180546104e490610dd3565b80601f016020809104026020016040519081016040528092919081815260200182805461051090610dd3565b801561055d5780601f106105325761010080835404028352916020019161055d565b820191906000526020600020905b81548152906001019060200180831161054057829003601f168201915b50505050509080600301805461057290610dd3565b80601f016020809104026020016040519081016040528092919081815260200182805461059e90610dd3565b80156105eb5780601f106105c0576101008083540402835291602001916105eb565b820191906000526020600020905b8154815290600101906020018083116105ce57829003601f168201915b5050505050908060040160009054906101000a900473ffffffffffffffffffffffffffffffffffffffff16905085565b6060806060806000806000808881526020019081526020016000206040518060a001604052908160008201805461065190610dd3565b80601f016020809104026020016040519081016040528092919081815260200182805461067d90610dd3565b80156106ca5780601f1061069f576101008083540402835291602001916106ca565b820191906000526020600020905b8154815290600101906020018083116106ad57829003601f168201915b505050505081526020016001820180546106e390610dd3565b80601f016020809104026020016040519081016040528092919081815260200182805461070f90610dd3565b801561075c5780601f106107315761010080835404028352916020019161075c565b820191906000526020600020905b81548152906001019060200180831161073f57829003601f168201915b5050505050815260200160028201805461077590610dd3565b80601f01602080910402602001604051908101604052809291908181526020018280546107a190610dd3565b80156107ee5780601f106107c3576101008083540402835291602001916107ee565b820191906000526020600020905b8154815290600101906020018083116107d157829003601f168201915b5050505050815260200160038201805461080790610dd3565b80601f016020809104026020016040519081016040528092919081815260200182805461083390610dd3565b80156108805780601f1061085557610100808354040283529160200191610880565b820191906000526020600020905b81548152906001019060200180831161086357829003601f168201915b505050505081526020016004820160009054906101000a900473ffffffffffffffffffffffffffffffffffffffff1673ffffffffffffffffffffffffffffffffffffffff1673ffffffffffffffffffffffffffffffffffffffff1681525050905080600001518160200151826040015183606001518460800151955095509550955095505091939590929450565b60015481565b6000604051905090565b600080fd5b600080fd5b600080fd5b600080fd5b6000601f19601f8301169050919050565b7f4e487b7100000000000000000000000000000000000000000000000000000000600052604160045260246000fd5b61097b82610932565b810181811067ffffffffffffffff8211171561099a57610999610943565b5b80604052505050565b60006109ad610914565b90506109b98282610972565b919050565b600067ffffffffffffffff8211156109d9576109d8610943565b5b6109e282610932565b9050602081019050919050565b82818337600083830152505050565b6000610a11610a0c846109be565b6109a3565b905082815260208101848484011115610a2d57610a2c61092d565b5b610a388482856109ef565b509392505050565b600082601f830112610a5557610a54610928565b5b8135610a658482602086016109fe565b91505092915050565b600080600060608486031215610a8757610a8661091e565b5b600084013567ffffffffffffffff811115610aa557610aa4610923565b5b610ab186828701610a40565b935050602084013567ffffffffffffffff811115610ad257610ad1610923565b5b610ade86828701610a40565b925050604084013567ffffffffffffffff811115610aff57610afe610923565b5b610b0b86828701610a40565b9150509250925092565b6000819050919050565b610b2881610b15565b8114610b3357600080fd5b50565b600081359050610b4581610b1f565b92915050565b60008060408385031215610b6257610b6161091e565b5b6000610b7085828601610b36565b925050602083013567ffffffffffffffff811115610b9157610b90610923565b5b610b9d85828601610a40565b9150509250929050565b600060208284031215610bbd57610bbc61091e565b5b6000610bcb84828501610b36565b91505092915050565b600081519050919050565b600082825260208201905092915050565b60005b83811015610c0e578082015181840152602081019050610bf3565b60008484015250505050565b6000610c2582610bd4565b610c2f8185610bdf565b9350610c3f818560208601610bf0565b610c4881610932565b840191505092915050565b600073ffffffffffffffffffffffffffffffffffffffff82169050919050565b6000610c7e82610c53565b9050919050565b610c8e81610c73565b82525050565b600060a0820190508181036000830152610cae8188610c1a565b90508181036020830152610cc28187610c1a565b90508181036040830152610cd68186610c1a565b90508181036060830152610cea8185610c1a565b9050610cf96080830184610c85565b9695505050505050565b610d0c81610b15565b82525050565b6000602082019050610d276000830184610d03565b92915050565b7f4e487b7100000000000000000000000000000000000000000000000000000000600052601160045260246000fd5b6000610d6782610b15565b91507fffffffffffffffffffffffffffffffffffffffffffffffffffffffffffffffff8203610d9957610d98610d2d565b5b600182019050919050565b7f4e487b7100000000000000000000000000000000000000000000000000000000600052602260045260246000fd5b60006002820490506001821680610deb57607f821691505b602082108103610dfe57610dfd610da4565b5b50919050565b60008190508160005260206000209050919050565b60006020601f8301049050919050565b600082821b905092915050565b600060088302610e667fffffffffffffffffffffffffffffffffffffffffffffffffffffffffffffffff82610e29565b610e708683610e29565b95508019841693508086168417925050509392505050565b6000819050919050565b6000610ead610ea8610ea384610b15565b610e88565b610b15565b9050919050565b6000819050919050565b610ec783610e92565b610edb610ed382610eb4565b848454610e36565b825550505050565b600090565b610ef0610ee3565b610efb818484610ebe565b505050565b5b81811015610f1f57610f14600082610ee8565b600181019050610f01565b5050565b601f821115610f6457610f3581610e04565b610f3e84610e19565b81016020851015610f4d578190505b610f61610f5985610e19565b830182610f00565b50505b505050565b600082821c905092915050565b6000610f8760001984600802610f69565b1980831691505092915050565b6000610fa08383610f76565b9150826002028217905092915050565b610fb982610bd4565b67ffffffffffffffff811115610fd257610fd1610943565b5b610fdc8254610dd3565b610fe7828285610f23565b600060209050601f83116001811461101a5760008415611008578287015190505b6110128582610f94565b86555061107a565b601f19841661102886610e04565b60005b828110156110505784890151825560018201915060208501945060208101905061102b565b8683101561106d5784890151611069601f891682610f76565b8355505b6001600288020188555050505b505050505050565b600060a0820190506110976000830188610d03565b81810360208301526110a98187610c1a565b905081810360408301526110bd8186610c1a565b905081810360608301526110d18185610c1a565b90506110e06080830184610c85565b9695505050505050565b7f4e6f7420617574686f72697a6564000000000000000000000000000000000000600082015250565b6000611120600e83610bdf565b915061112b826110ea565b602082019050919050565b6000602082019050818103600083015261114f81611113565b9050919050565b600060608201905061116b6000830186610d03565b818103602083015261117d8185610c1a565b905061118c6040830184610c85565b94935050505056fea26469706673582212209d77dcfb57804ec857259b87d72edbe9a8db31314c28276ec3f270eb0b7a06c964736f6c63430008130033",
  "linkReferences": {},
  "deployedLinkReferences": {}
}